:020000040800F2
:100000000000022051360008C9320008CB32000837
:10001000CD320008CF320008D132000800000000C5
:10002000000000000000000000000000D3320008C3
:10003000D532000800000000D7320008D93200088D
:10004000A1360008A1360008A1360008A136000834
:10005000A1360008A1360008A1360008A136000824
:10006000A1360008A1360008A1360008A136000814
:10007000A1360008A1360008A1360008A136000804
:10008000A1360008A1360008A1360008A1360008F4
:10009000E5320008F5320008A1360008A136000854
:1000A000A1360008A1360008A1360008A1360008D4
:1000B00005330008A136000815330008A1360008F2
:1000C000A1360008A1360008A1360008A1360008B4
:1000D000A1360008A1360008A1360008A1360008A4
:1000E000A1360008A1360008A1360008A136000894
:1000F000A1360008A1360008A1360008A136000884
:10010000A1360008A136000825330008A1360008F2
:10011000A1360008A1360008A1360008A136000863
:10012000A1360008A1360008A1360008A136000853
:10013000A13600080000000000000000A136000801
:100140003533000845330008A1360008A136000801
:10015000A1360008A1360008A1360008A136000823
:10016000A1360008A1360008A1360008A136000813
:10017000A1360008A1360008A136000800000000E2
:1001800000000000A1360008000000000000000090
:10019000A13600080000000000000000A1360008A1
:1001A000000000000000000000000000A136000870
:1001B000A1360008A1360008A1360008A1360008C3
:0401C000A13600085C
:1001C40010B5054C237833B9044B13B10448AFF38D
:1001D40000800123237010BDC00000200000000037
:1001E400EC36000808B5034B1BB103490348AFF3D1
:1001F400008008BD00000000C4000020EC360008A8
:1002040053B94AB9002908BF00281CBF4FF0FF3179
:100214004FF0FF3000F06EB9ADF1080C6DE904CE7B
:1002240000F006F8DDF804E0DDE9022304B07047CD
:100234002DE9F047089D04468C46002B40F083804E
:100244008A42174647D9B2FA82F242B1C2F120007B
:1002540024FA00F09140974040EA010C94404FEAA0
:100264001748230CBCFBF8F61FFA87FE08FB16C1DF
:1002740043EA014306FB0EF1994209D9FB1806F142
:10028400FF3080F01981994240F21681023E3B44CE
:100294005B1AA4B2B3FBF8F008FB103344EA03443E
:1002A40000FB0EFEA64509D93C1900F1FF3380F08E
:1002B4000581A64540F2028102383C4440EA0640EA
:1002C400A4EB0E0400261DB1D4400023C5E900436D
:1002D4003146BDE8F08702B9FFDEB2FA82F2002AA5
:1002E40050D1CB1B4FEA174E1FFA87F80126B3FBF8
:1002F400FEFC210C0EFB1C3341EA034108FB0CF30A
:100304008B4207D979180CF1FF3002D28B4200F2EC
:10031400E9808446C91AA3B2B1FBFEF00EFB1011AA
:1003240043EA014408FB00F8A04507D93C1900F151
:10033400FF3302D2A04500F2D9801846A4EB08048A
:1003440040EA0C40BFE78B4209D9002D00F0B18090
:100354000026C5E9000130463146BDE8F087B3FA0E
:1003640083F6002E4AD18B4202D3824200F2B88037
:10037400841A61EB030101208C46002DA8D0C5E945
:10038400004CA5E7C2F1200320FA03F6974001FAD6
:1003940002F04FEA174ED9403043030CB1FBFEF68E
:1003A4001FFA87F80EFB161143EA014306FB08F116
:1003B400994204FA02F409D9FB1806F1FF3C80F0D3
:1003C4008D80994240F28A80023E3B445B1A81B29E
:1003D400B3FBFEF00EFB103341EA034100FB08F3CC
:1003E4008B4207D9791800F1FF3C73D28B4271D943
:1003F40002383944CB1A40EA064678E7C6F1200CA5
:1004040003FA06F422FA0CF31C4320FA0CF701FA5F
:1004140006F34FEA144E21FA0CF11F433B0CB1FBD7
:10042400FEF91FFA84F80EFB191143EA014109FB96
:1004340008FA8A4502FA06F200FA06F308D96118A6
:1004440009F1FF3048D28A4546D9A9F1020921446D
:10045400A1EB0A01BFB2B1FBFEF00EFB101147EA9B
:10046400014700FB08F8B84507D9E71900F1FF3147
:100474002ED2B8452CD90238274440EA0940A7EBCC
:100484000807A0FB02894F45C64649461AD317D030
:100494005DB1B3EB0E0267EB010707FA0CFCF24007
:1004A4004CEA0202F740C5E9002700263146BDE8C0
:1004B400F0872E4628460BE70646E9E61846FDE691
:1004C4004345E5D2B8EB020E69EB04010138DFE7DE
:1004D4000846D2E760468DE78146B9E7664675E788
:1004E40030464AE7ACF1020C394413E702383C4485
:1004F40024E700BF704700BF10B504460E4B1878C0
:100504004FF47A73B3FBF0F30C4A1068B0FBF3F0CA
:1005140000F0ECFB68B90F2C01D901200AE000229D
:1005240021464FF0FF3000F0A1FB034B5C6000203C
:1005340000E0012010BD00BF00000020BC0000202E
:1005440008B50B4B1A6842F400721A601A6842F438
:1005540080621A601A6842F480721A60032000F004
:1005640073FB0020FFF7C8FF02F062FE002008BD05
:10057400003C0240034A1168034B1B780B44136090
:10058400704700BF2001002000000020014B1868C4
:10059400704700BF20010020002800F0A18038B57A
:1005A400044690F82030D3B12268136823F0020384
:1005B4001360FFF7EBFF054623685A6812F0020F39
:1005C40010D0FFF7E3FF401B0A28F5D9636A43F410
:1005D40000336362052384F82030012038BD01F024
:1005E400BFFEE1E71A6842F001021A60FFF7CEFF8E
:1005F400054623685A6812F0010F0DD1FFF7C6FFB4
:10060400401B0A28F5D9636A43F400336362052367
:1006140084F820300120E1E7227E012A3DD01A68C7
:1006240022F080021A60637E012B3BD0226813689B
:1006340023F040031360A37E012B39D02268136892
:1006440023F020031360E37E012B37D02268136864
:1006540043F010031360237F012B35D02268136805
:1006640023F008031360637F012B33D022681368DF
:1006740023F004031360A368E2681343226913435D
:10068400626913436268013A21681343CB61002015
:100694006062012384F82030A0E71A6842F08002E7
:1006A4001A60C0E72268136843F040031360C2E78E
:1006B4002268136843F020031360C4E722681368B8
:1006C40023F010031360C6E72268136843F008039D
:1006D4001360C8E72268136843F004031360CAE791
:1006E4000120704770B5044690F82050EDB2012DFA
:1006F40006D0436A43F4002343620125284670BDB3
:10070400022380F820300268136823F00103136089
:10071400FFF73CFF064623685B6813F0010F0CD01B
:10072400FFF734FF831B0A2BF5D9636A43F40033C4
:100734006362052384F82030E0E700256562DDE785
:1007440070B490F82040E4B2012C04D090F820401A
:10075400E4B2022C69D10468A56815F0806F07D152
:10076400A56815F0006F03D1A56815F0805F56D019
:10077400A468C4F301640125A5401D608B68002BA7
:100784003AD10E68CB68056843EA465604F118036B
:100794001B01EE5003680D6904F1180603EB061300
:1007A4005D600B7D012B32D0D17993791B0443EA30
:1007B4000163517943EA0123157901682B4301EB65
:1007C4000411C1F88C31D17893781B0443EA016396
:1007D400517843EA0123117802680B4302EB0412B7
:1007E400C2F88831026818342401135943F0010314
:1007F4001351002070BC70474D6843EAC503CD68AF
:1008040006682B4304F118052D017351C2E70368F0
:1008140003EB0613596841F480715960C4E7436AD5
:1008240043F4001343620120E4E7436A43F4802362
:1008340043620120DEE790F82030DBB2012B06D0C2
:1008440090F82030DBB2022B01D0002070470368FF
:10085400986810F0806000D001209A6812F0006F50
:1008640000D001309B6813F0805FEFD001307047F7
:1008740030B490F82040E4B2012C05D090F8204028
:10088400E4B2022C40F0928051B90468E46814F098
:10089400030F12D1436A43F400134362012073E04F
:1008A40001290AD10468246914F0030F05D1436AAD
:1008B40043F400134362012066E0056801F11B0460
:1008C40024012C5904F004049460002C5ED10568C2
:1008D40001F11B0424012C59640D1460056801F115
:1008E4001B0424012D59C5F34005D5600568254432
:1008F4006D6805F00F051561056825446D68C5F33D
:100904000725956105682C446468240C54610268C9
:1009140002EB0112D2F8B8211A70026802EB01123C
:10092400D2F8B821120A5A70026802EB0112D2F806
:10093400B821120C9A70026802EB0112D2F8B821A5
:10094400120EDA70026802EB0112D2F8BC211A719D
:10095400026802EB0112D2F8BC21120A5A71026831
:1009640002EB0112D2F8BC21120C9A71026802EB5C
:100974000112D2F8BC21120EDA7179B90268D36877
:1009840043F02003D360002030BC7047056801F1B8
:100994001B0424012C59E40854609FE70129F2D177
:1009A4000268136943F020031361ECE7436A43F4DC
:1009B400802343620120E7E790F82030DBB2012B6B
:1009C4000AD090F82030DBB2022B05D0436A43F4FE
:1009D40080234362012070470268536919435161BF
:1009E40000207047704770477047704770477047E2
:1009F4007047704770477047704770472DE9F84F4C
:100A0400054603685C69D3F804809F68D3F80CB08A
:100A1400D3F810A0D3F8189014F001063BD017F0C7
:100A2400010616D001229A6017F0020F08D117F0C0
:100A3400040F0CD117F0080606D04FF4805608E0D6
:100A4400FFF7D0FF002604E0FFF7CFFF01E04FF4EB
:100A5400006617F4807F0DD02B684FF480729A6083
:100A640017F4007F40F0868017F4806F00F08680D2
:100A740046F4005617F4803F0DD02B684FF48032B3
:100A84009A6017F4003F40F0838017F4802F00F041
:100A9400838046F4004614F0080F07D01BF0100FB3
:100AA40004D046F400762B681022DA6014F0040FA8
:100AB40002D01BF0080F79D114F0020F04D02B6878
:100AC400DB6813F0030F78D114F0400F07D01AF04D
:100AD400100F04D046F480662B6810221A6114F0BB
:100AE400200F02D01AF0080F6BD114F0100F04D0AD
:100AF4002B681B6913F0030F6AD114F4003F02D072
:100B040018F0100F68D114F4803F02D018F0080FC9
:100B140069D114F4004F7AD018F0040F74D014F48F
:100B2400807F04D019F0010F01D046F0010614F4BF
:100B3400007F04D019F0020F01D046F0020614F42D
:100B4400806F04D019F0040F01D046F0040614F4A9
:100B5400006F59D019F0700956D0B9F1400F65D023
:100B640058D8B9F1200F5ED0B9F1300F42D146F018
:100B7400200644E02846FFF736FF7BE717F4006FB2
:100B840002D046F4804675E72846FFF72FFF71E749
:100B94002846FFF729FF7EE717F4002F02D046F41A
:100BA400803678E72846FFF722FF74E72B6808228F
:100BB400DA602846FFF71CFF7EE7284601F0ECFCCC
:100BC40082E72B6808221A612846FFF713FF8CE797
:100BD4002846FFF70EFF90E72B6810225A6028463C
:100BE400FFF709FF8FE72B6808225A602846FFF7B2
:100BF40003FF8EE7B9F1100F01D146F008062A6809
:100C0400936923F0700393612B6804225A609EB9A0
:100C1400BDE8F88FB9F1500F0BD0B9F1600FEED1E8
:100C240046F48076EBE746F01006E8E746F0400627
:100C3400E5E746F08006E2E76B6A1E436E622846EB
:100C4400FFF7DBFEE4E70000074AD36823F4E06320
:100C54001B041B0C000200F4E060034343F0BF6379
:100C640043F40033D360704700ED00E030B4174B19
:100C7400DB68C3F30223C3F10704042C28BF042454
:100C84001D1D062D18D9033B4FF0FF3505FA04F45A
:100C940021EA0401994005FA03F322EA0303194304
:100CA40000280BDB0901C9B200F1604000F5614086
:100CB40080F8001330BC70470023E5E700F00F0014
:100CC4000901C9B2024B1954F4E700BF00ED00E07A
:100CD40014ED00E000F01F02400901239340024A92
:100CE40042F82030704700BF00E100E00138B0F165
:100CF400807F0AD2064B5860064AF02182F82310FE
:100D04000020986007221A6070470120704700BFD6
:100D140010E000E000ED00E0042805D0054A136867
:100D240023F0040313607047024A136843F004037A
:100D34001360704710E000E0704708B5FFF7FCFF50
:100D440008BD000000230F2B00F2D380F0B482B062
:100D540039E0062200E00022B2403A430234654EF4
:100D640046F82420644A1468EA4324EA05064F68D6
:100D740017F4803F01D045EA04065F4C266064689E
:100D840002EA04064F6817F4003F01D045EA04065E
:100D9400594C6660A46802EA04064F6817F4801F81
:100DA40001D045EA0406544CA660E46822404E682B
:100DB40016F4001F01D045EA04024F4CE2600133EF
:100DC4000F2B00F2938001229A400C6804EA02057A
:100DD40032EA0404F3D14C68022C01D0122C10D155
:100DE400DE08083650F826C003F00704A7000F24D5
:100DF400BC402CEA040C0C69BC4044EA0C0440F8E6
:100E04002640D0F800C05E000324B440E7432CEA37
:100E1400040C4C6804F00304B44044EA0C04046079
:100E24004C6804F1FF3CBCF1010F03D9112C01D033
:100E3400122C10D1846807EA040CCC68B44044EA4C
:100E44000C048460446824EA02024C68C4F300146D
:100E54009C4014434460C26817408A68B2403A43D5
:100E6400C2604A6812F0805FA9D000220192234A2E
:100E7400546C44F480445464526C02F480420192F1
:100E8400019A9C08A61C1B4A52F8267003F0030220
:100E940096000F22B24027EA0207194A90423FF413
:100EA4005AAF02F58062904216D002F580629042F9
:100EB40014D002F58062904212D002F58062904212
:100EC40010D002F5806290420ED002F5806290420A
:100ED4003FF43FAF07223FE701223DE702223BE711
:100EE400032239E7042237E7052235E702B0F0BCD4
:100EF4007047704700380140003C01400038024010
:100F0400000002400AB181617047090481617047A1
:100F14004369594041617047002800F09A8070B5D8
:100F24000D4604464F4B1B6803F00F038B4208D257
:100F3400CBB24C4A1370136803F00F038B4240F09A
:100F44008A80236813F0020F17D013F0040F04D023
:100F5400454A936843F4E0539360236813F0080F01
:100F640004D0414A936843F4604393603E4A9368D3
:100F740023F0F003A1680B439360236813F0010F7F
:100F840032D06368012B21D09A1E012A25D9364A12
:100F9400126812F0020F60D033498A6822F003020B
:100FA40013438B60FFF7F2FA06462F4B9B6803F05E
:100FB4000C036268B3EB820F16D0FFF7E7FA801BCD
:100FC40041F288339842F0D9032041E0264A12685E
:100FD40012F4003FE0D101203AE0234A126812F0F3
:100FE400007FD9D1012033E01E4B1B6803F00F03AF
:100FF400AB4207D9EAB21B4B1A701B6803F00F030C
:10100400AB422CD1236813F0040F06D0164A936820
:1010140023F4E053E1680B439360236813F0080F53
:1010240007D0114A936823F46043216943EAC1035A
:10103400936000F025F80C4B9B68C3F303130B4A31
:10104400D35CD8400A4B18600020FFF755FA002003
:1010540070BD012070470120FAE70120F8E7012064
:10106400F6E700BF003C0240003802401037000899
:10107400BC000020014B1868704700BFBC00002072
:10108400F8B5424B9B6803F00C03082B07D00C2BDC
:1010940041D0042B01D03E48F8BD3E48FCE73B4B11
:1010A4005A6802F03F025B6813F4800F12D0374B8A
:1010B4005968C1F3881100233648A1FB0001FFF7EA
:1010C4009FF8324B5B68C3F3014301335B00B0FB11
:1010D400F3F0E1E72D4B5B68C3F38813580100215B
:1010E400C01A61F100018E0146EA906687013C1A3C
:1010F40066EB0105E90041EA5471E000C01841F1D2
:1011040000018B0243EA90538402204619460023CF
:10111400FFF776F8D5E71D4B5A6802F03F025B688B
:1011240013F4800F10D0194B5968C1F388110023B0
:101134001848A1FB0001FFF763F8144B5B68C3F385
:101144000273B0FBF3F0A7E7104B5B68C3F388139B
:101154005C010025E41A65F10005AE0146EA9466D7
:10116400A701381B66EB0501CC0044EA5074C500A6
:10117400E81844F100018B0243EA905384022046AC
:1011840019460023FFF73CF8D7E700BF00380240B8
:101194000024F40040787D0170B582B004460368F1
:1011A40013F0010F41D0A64B9B6803F00C03042BF2
:1011B40032D0A34B9B6803F00C03082B27D0A04B21
:1011C4009B6803F00C030C2B59D06368B3F5803F84
:1011D4005BD0B3F5A02F5ED0994B1A6822F480320D
:1011E4001A601A6822F480221A606368002B5CD0AB
:1011F400FFF7CCF90546924B1B6813F4003F14D15A
:10120400FFF7C4F9401B6428F5D903209FE18C4BF8
:101214005B6813F4800FD2D0894B1B6813F4003F32
:1012240003D06368002B00F08D81236813F0020F54
:1012340060D0834B9B6813F00C0F4AD0804B9B68A3
:1012440003F00C03082B3FD07D4B9B6803F00C0389
:101254000C2B68D0E368002B74D07A4B01221A60FF
:10126400FFF794F90546764B1B6813F0020F60D123
:10127400FFF78CF9401B0228F5D9032067E1704B76
:101284005B6813F4800FA0D0C6E76D4A136843F47B
:1012940080331360A9E76A4B1A6842F480221A600B
:1012A4001A6842F480321A609FE7FFF76FF9054627
:1012B400634B1B6813F4003FB7D0FFF767F9401B7B
:1012C4006428F5D9032042E15D4B5B6813F4800F79
:1012D400BAD15B4B1B6813F0020F03D0E368012BF8
:1012E40040F03281564A136823F0F803216943EA37
:1012F400C1031360236813F0080F47D06369002B00
:1013040032D0514B01221A60FFF740F905464C4B8D
:101314005B6F13F0020F39D1FFF738F9401B022835
:10132400F5D9032013E1464B5B6813F4800F91D188
:10133400CFE7434A136823F0F803216943EAC10362
:101344001360D7E73F4B00221A60FFF71FF90546E9
:101354003B4B1B6813F0020FCCD0FFF717F9401B6F
:101364000228F5D90320F2E0374B00221A60FFF778
:101374000DF90546324B5B6F13F0020F06D0FFF7F1
:1013840005F9401B0228F5D90320E0E0236813F097
:10139400040F79D02A4B1B6C13F0805F0DD100230E
:1013A4000193274B1A6C42F080521A641B6C03F0B1
:1013B40080530193019B012500E00025234B1B680A
:1013C40013F4807F21D0A368012B32D0052B3FD0AA
:1013D4001B4B1A6F22F001021A671A6F22F00402E3
:1013E4001A67A368002B3DD0FFF7D0F80646144BCC
:1013F4001B6F13F0020F46D1FFF7C8F8801B41F2B0
:1014040088339842F3D90320A1E0104A136843F4C7
:1014140080731360FFF7BAF806460C4B1B6813F48D
:10142400807FD0D1FFF7B2F8801B0228F5D90320C2
:101434008DE0034A136F43F001031367D1E700BF44
:101444000038024000004742800E474200700040CE
:10145400414B1A6F42F004021A671A6F42F00102FC
:101464001A67BEE7FFF792F806463B4B1B6F13F073
:10147400020F08D0FFF78AF8801B41F288339842A4
:10148400F3D9032063E0E5B9A369002B5ED0324AA7
:10149400926802F00C02082A5BD0022B17D02F4B63
:1014A40000221A60FFF772F804462B4B1B6813F0F6
:1014B400007F45D0FFF76AF8001B0228F5D9032006
:1014C40045E0254A136C23F080531364DCE7234B77
:1014D40000221A60FFF75AF805461F4B1B6813F0E9
:1014E400007F06D0FFF752F8401B0228F5D90320ED
:1014F4002DE0E369226A1343626A43EA8213A26A13
:101504005208013A43EA0243E26A43EA0263226B65
:1015140043EA0273104A5360104B01221A60FFF72A
:1015240035F804460C4B1B6813F0007F06D1FFF717
:101534002DF8001B0228F5D9032008E0002006E05E
:10154400002004E0012002E0012000E0002002B0BD
:1015540070BD0120FBE700BF003802406000474235
:101564002DE9F0410646884617461D463BE02DB15D
:10157400FFF70CF8069BC01AA84234D332685368AC
:1015840023F0E00353607368B3F5827F0BD0B36A32
:10159400B3F5005F14D0012386F85130002386F898
:1015A4005030032027E0B368B3F5004F02D0B3F501
:1015B400806FECD13268136823F040031360E6E7D0
:1015C4003268136823F400531B041B0C1360326845
:1015D400136843F400531360DDE70124BC4209D0CF
:1015E400B5F1FF3FC3D13468A46838EA0403F4D0EA
:1015F4000024F3E70020BDE8F08110B582B0044672
:101604000B46009200228021FFF7AAFF08B902B01E
:1016140010BD636D43F0200363650320F7E70028E2
:101624003BD010B504460023836290F85130002B60
:101634002ED0022384F851302268136823F040032B
:1016440013606368A2681343E26813432269134377
:1016540062691343A26902F400721343E2691343FB
:10166400226A1343A16A22680B431360638B03F05D
:101674000403616A22680B4353602268D36923F42C
:101684000063D36100206065012384F8513010BDEC
:1016940080F8503001F058FBCBE7012070472DE96A
:1016A400F04385B01D4690F85030012B00F0C48003
:1016B40004460E469146012380F85030FEF766FF3B
:1016C400804694F85170FFB2012F40F0AA80002E9A
:1016D40000F0A880B9F1000F00F0A480032384F87F
:1016E4005130002363652663A4F83490A4F836903F
:1016F400A363A387E38763642364A368B3F5004FFC
:101704001CD023681A6812F0400F03D11A6842F003
:1017140040021A60E368B3F5006F15D063681BB12B
:10172400E38E9BB2012B41D1236816F8012B1A7367
:10173400E38E9BB2013B9BB2E38637E022681368D9
:1017440043F480431360DCE763681BB1E38E9BB210
:10175400012B0DD1236836F8022BDA60E38E9BB29D
:10176400013B9BB2E38603E0D5B1B5F1FF3F11D154
:10177400E38E9BB2002B32D023689A6812F0020FDA
:10178400F2D036F8022BDA60E38E9BB2013B9BB2B7
:10179400E386EDE7FEF7FAFEA0EB0800A842E7D3E4
:1017A40003273FE0CDB1B5F1FF3F10D1E28E92B2F5
:1017B400AAB123689A6812F0020FF3D016F8012B2D
:1017C4001A73E28E92B2013A92B2E286EEE7FEF723
:1017D400DDFEA0EB0800A842E8D3032722E0CDF801
:1017E40000802B46012202212046FFF7B9FE08B1F2
:1017F400032717E0424629462046FFF7FEFE03462C
:1018040060B9A26832B903922268D16803919268E0
:101814000392039A626D2AB91F4603E0202363658D
:1018240000E00227012384F85130002384F850306B
:10183400384605B0BDE8F0830227F9E72DE9F04307
:1018440085B099460C9F90F85030012B00F014811C
:1018540004460E461546012380F85030FEF796FEE6
:10186400804694F85130DBB26268012B0AD0B2F59D
:10187400827F40F0ED80A268002A40F0F380042BC0
:1018840040F0F280002E00F0F180002D00F0F08096
:10189400B9F1000F00F0EE8094F85130DBB2012B67
:1018A4002CD000236365A563A4F83E90A4F83C9073
:1018B4002663A4F83690A4F8349023646364236800
:1018C4001A6812F0400F03D11A6842F040021A60FD
:1018D400E368B3F5006F15D063681BB1E38E9BB268
:1018E400012B08D1236816F8012B1A73E38E9BB2DF
:1018F400013B9BB2E3864FF0010965E0052384F8C0
:101904005130CEE763681BB1E38E9BB2012B08D143
:10191400236836F8022BDA60E38E9BB2013B9BB25C
:10192400E3864FF0010914E0E38F9BB273B123689F
:101934009A6812F0010F09D0DB6825F8023BE38FA7
:101944009BB2013B9BB2E3874FF00109B7F1FF3F24
:101954001DD1E38E9BB21BB9E38F9BB2002B58D0F1
:10196400B9F1000FE0D0E38E9BB2002BDCD02368EA
:101974009A6812F0020FD7D036F8022BDA60E38EA1
:101984009BB2013B9BB2E3864FF00009CCE7FEF724
:10199400FDFDA0EB0800B842DBD3032059E0E38F40
:1019A4009BB273B123689A6812F0010F09D0DB6807
:1019B40005F8013BE38F9BB2013B9BB2E3874FF0F9
:1019C4000109B7F1FF3F1CD1E38E9BB213B9E38F3A
:1019D4009BB2F3B1B9F1000FE1D0E38E9BB2002BBF
:1019E400DDD023689A6812F0020FD8D016F8012BC4
:1019F4001A73E38E9BB2013B9BB2E3864FF000095E
:101A0400CDE7FEF7C3FDA0EB0800B842DCD303200A
:101A14001FE0CDF800803B46012202212046FFF75B
:101A24009FFD08B1032014E0424639462046FFF7E3
:101A3400E4FD48B9A36863B903932368DA680392A1
:101A44009B680393039B04E020236365012000E06B
:101A54000220012384F85130002384F8503005B06B
:101A6400BDE8F0830220F4E70220F2E70120F0E76A
:101A74000120EEE70120ECE70220F0E72DE9F04336
:101A840083B004460E4691461D464368B3F5827FF3
:101A940036D094F85030012B00F0A080012384F854
:101AA4005030FEF773FD804694F85170FFB2012F59
:101AB40040F08980002E00F08780B9F1000F00F01B
:101AC4008380042384F8513000236365A663A4F85B
:101AD4003C90A4F83E902363A386E3862364636466
:101AE400A368B3F5004F18D023681A6812F0400FAA
:101AF40003D11A6842F040021A60E368BBB134E0D3
:101B04008368002BC5D1042380F851300095134617
:101B14000A46FFF793FE07465CE02268136823F445
:101B240080431360E0E7D5B1B5F1FF3F11D1E38FF6
:101B34009BB2002B32D023689A6812F0010FF2D0C6
:101B44001B7B06F8013BE38F9BB2013B9BB2E3870F
:101B5400EDE7FEF71BFDA0EB0800A842E7D303273F
:101B640032E0CDB1B5F1FF3F10D1E38F9BB2ABB101
:101B740023689A6812F0010FF3D0DB6826F8023B61
:101B8400E38F9BB2013B9BB2E387EEE7FEF7FEFCDB
:101B9400A0EB0800A842E8D3032715E06368B3F577
:101BA400827F03D0636D7BB900270DE0A368B3F592
:101BB400004F02D0B3F5806FF4D12268136823F08C
:101BC40040031360EEE70227012384F85130002319
:101BD40084F85030384603B0BDE8F0830227F9E7B3
:101BE40030B4036A056A25F001050562846924F0AE
:101BF400F00444EA021423F00A030B4384610362F1
:101C040030BC704730B4056A25F01005056284695C
:101C1400056A24F4407444EA022424F470441B0347
:101C24009BB2234325F0A005090101F0A00129433B
:101C34008361016230BC704730B4056A25F0100539
:101C440005628469036A24F4704444EA023423F08C
:101C5400A00343EA01138461036230BC704730B4CB
:101C6400056A25F480750562C469056A24F00304D5
:101C7400144324F0F0041B01DBB2234325F4206554
:101C8400090201F420612943C361016230BC704739
:101C940030B4056A25F480550562C469056A24F4E4
:101CA400407444EA022424F470441B039BB223438B
:101CB40025F42045090301F420412943C36101624D
:101CC40030BC7047836823F0700341F00701194367
:101CD4008160704710B4846824F47F4442EA03228C
:101CE4000A43224382605DF8044B70470268D3685C
:101CF40043F00103D3600268136843F001031360E7
:101D04000020704790F83830012B7ED010B504467F
:101D1400012380F83830022380F839300268936850
:101D240023F47F4323F0770393600B68502B49D04F
:101D340019D8202B5FD00DD9302B61D0402B3AD14C
:101D4400CA6849680068FFF74BFF40212068FFF725
:101D5400B9FF30E0002B49D0102B2CD110210068A2
:101D6400FFF7B0FF27E0B3F5805F1FD00ED9B3F5BE
:101D7400005F20D1CB684A6889680068FFF7AAFF32
:101D84002268936843F48043936014E0602B23D06B
:101D9400702B10D1CB684A6889680068FFF79AFFF6
:101DA4002268936843F07703936004E002689368C1
:101DB40023F007039360012384F83930002084F86A
:101DC400380010BDCA6849680068FFF709FF502150
:101DD4002068FFF777FFEEE7CA6849680068FFF7F5
:101DE4002BFF60212068FFF76DFFE4E70021006806
:101DF400FFF768FFDFE720210068FFF763FFDAE7FA
:101E040030210068FFF75EFFD5E702207047704776
:101E14007047704710B5044603681A6912F0020F40
:101E240011D0DA6812F0020F0DD06FF002021A61BD
:101E34000123037603689B6913F0030F70D000F04D
:101E44004FFE0023237623681A6912F0040F12D080
:101E5400DA6812F0040F0ED06FF004021A61022344
:101E6400237623689B6913F4407F5FD0204600F0FB
:101E740037FE0023237623681A6912F0080F12D064
:101E8400DA6812F0080F0ED06FF008021A6104230A
:101E940023762368DB6913F0030F4ED0204600F04D
:101EA4001FFE0023237623681A6912F0100F12D044
:101EB400DA6812F0100F0ED06FF010021A610823C6
:101EC40023762368DB6913F4407F3DD0204600F07D
:101ED40007FE0023237623681A6912F0010F03D04A
:101EE400DA6812F0010F36D123681A6912F0800FF4
:101EF40003D0DA6812F0800F34D123681A6912F023
:101F0400400F03D0DA6812F0400F32D123681A6907
:101F140012F0200F03D0DA6812F0200F30D110BD78
:101F2400FFF775FF2046FFF773FF8AE72046FFF7A8
:101F34006EFF2046FFF76CFF9BE72046FFF767FF25
:101F44002046FFF765FFACE72046FFF760FF204619
:101F5400FFF75EFFBDE76FF001021A61204600F053
:101F640077FDC1E76FF080021A61204600F0ABF9FB
:101F7400C3E76FF040021A612046FFF74AFFC5E746
:101F84006FF020021A61204600F09CF9C7E70000B8
:101F940003682E4A904212D0B0F1804F0FD0A2F5C0
:101FA4007C4290420BD002F58062904207D002F549
:101FB4008062904203D002F57842904203D123F02C
:101FC40070034A681343214A90422AD0B0F1804FEB
:101FD40027D0A2F57C42904223D002F58062904241
:101FE4001FD002F5806290421BD002F578429042E5
:101FF40017D002F57052904213D002F580629042DD
:102004000FD002F5806290420BD0A2F59832904234
:1020140007D002F58062904203D002F580629042BC
:1020240003D123F44073CA68134303608B68C3620B
:102034000B688362054B984203D003F58063984292
:1020440001D10B6903630123436170470000014020
:10205400B0B110B5044690F8393063B1022384F866
:102064003930214651F8040BFFF792FF012384F81D
:102074003930002010BD80F8383001F0B3FAEDE7B4
:1020840001207047B0B110B5044690F8393063B1FF
:10209400022384F83930214651F8040BFFF778FF06
:1020A400012384F83930002010BD80F8383001F065
:1020B40045FAEDE70120704770B4046A24F0010486
:1020C40004628469066A1A4DA8421FD0B0F1804F99
:1020D4001CD0A5F57C45A84218D005F58065A8421A
:1020E40014D005F58065A84210D005F57845A842BE
:1020F4000CD005F57055A84208D0A5F59435A84232
:1021040004D024F0030242F0010202E024F00304AC
:10211400224322F0F0021B01DBB2134326F00A0231
:1021240001F00A0111438361016270BC704700BF72
:102134000000014038B590F83830012B58D00446DF
:102144000D46012380F83830022380F83930DAB1A3
:10215400042A2AD0082A3AD0CB684A680968006859
:10216400FFF796FD2268D36923F44063D3612268A4
:10217400D369A96843EA0123D361012384F8393080
:10218400002084F8380038BDCB684A6809680068C4
:10219400FFF792FF2268936923F00C03936122688E
:1021A4009369A9680B439361E7E7CB684A680968B8
:1021B4000068FFF727FD2268936923F44063936165
:1021C40022689369A96843EA01239361D5E7CB6840
:1021D4004A6809680068FFF742FD2268D36923F062
:1021E4000C03D3612268D369A9680B43D361C4E7A4
:1021F4000220C8E710B4012303FA01F4036A23EAB6
:1022040004030362036A02FA01F10B4303625DF8FB
:10221400044B704710B504460C290DD8DFE801F0D3
:10222400070C0C0C170C0C0C1D0C0C0C2300026876
:10223400D36843F00203D36001222068FFF7DAFF7A
:102244002268136843F001031360002010BD026884
:10225400D36843F00403D360EEE70268D36843F025
:102264000803D360E8E70268D36843F01003D3603F
:10227400E2E790F83830012B22D030B4012280F804
:102284003820022380F839300468636823F070032F
:102294006360046863680D682B4363600468A36823
:1022A40023F08003A3600468A36849680B43A36018
:1022B40080F83920002380F83830184630BC704745
:1022C400022070477047704708B50F480F4B0360F2
:1022D4000523436000238360C3604FF480220261BE
:1022E4004FF4401242610376012242768376C3762C
:1022F40003774377FEF750F900B908BD4921044834
:1023040000F00AFCF9E700BF4C0100200064004023
:102314002837000808B50F480F4B036005234360B6
:1023240000238360C3604FF4802202614FF44012A3
:1023340042610376012242768376C376037743773C
:10234400FEF72AF900B908BD5F21044800F0E4FB58
:10235400F9E700BF24010020006800402837000886
:1023640030B589B003683D4A934204D03C4A934255
:1023740034D009B030BD3B4A136801331360012BDC
:102384001FD04FF4C05303930224049400250595F1
:10239400032306930923079303A93348FEF7D2FCCA
:1023A4002A4621461420FEF761FC1420FEF792FC15
:1023B4002A4621461520FEF759FC1520FEF78AFC13
:1023C400D7E700230093294B1A6C42F000721A6479
:1023D4001B6C03F000730093009BD2E7002301936E
:1023E400224B1A6C42F080621A641B6C03F0806307
:1023F4000193019B1B4A136801331360012B1FD007
:102404004FF44053039302240494002505950323B9
:1024140006930923079303A91548FEF793FC2A465C
:1024240021464020FEF722FC4020FEF753FC2A46BA
:1024340021464120FEF71AFC4120FEF74BFC98E7A9
:1024440000230293094B1A6C42F000721A641B6C4D
:1024540003F000730293029BD2E700BF00640040C4
:1024640000680040DC000020000002400038024008
:1024740000040240F0B587B005460C4617461E46D8
:102484002548FEF7D8F90028FAD005AB2A46234997
:102494002148FEF755F92048FEF7CDF90028FAD077
:1024A40004AB22461E491C48FEF74AF91A48FEF7B7
:1024B400C2F90028FAD001AB0C9A1A491648FEF763
:1024C4003FF9194B5B68632B0AD0174A53680133F1
:1024D40053604FF400711548FEF71AFD07B0F0BDC4
:1024E400114B4FF0FF325A600B48FEF7A4F9002855
:1024F400FAD003AB3A460E490748FEF721F90648DD
:10250400FEF799F90028FAD002AB3246094902488D
:10251400FEF716F9D9E700BF4C010020080000209F
:102524002000002038000020DC00002000000240D1
:10253400500000206800002000B58BB000230593F4
:1025440006930793099340F24222049204220892CC
:1025540002930F4B1A788DF804205B78C3F30002C2
:102564008DF80520C3F340028DF80620C3F38003E1
:102574008DF807300748FEF75EF90028FAD003AB60
:1025840001AA04A90348FEF7DBF80BB05DF804FBCD
:102594001C0100204C01002070B588B004460023C3
:1025A400029303930493059306930793184B98425D
:1025B40004D0184B9C4216D008B070BD164E174D6F
:1025C400334605F1780200211148FEF751F9AB6F4B
:1025D4000293D5F88830069301AB324602A90D4820
:1025E400FEF7AEF8E5E70C4D0C4C2B4604F17802EF
:1025F40000210848FEF73CF9A36F0293D4F8883011
:10260400069301AB2A4602A90148FEF799F8D3E7DD
:10261400240100204C010020E400002008000020D8
:10262400C0ED000A90ED017A67EE200AF7EE007A19
:1026340070EEA70AC7EEA06AC0ED026A90ED037AB5
:1026440026EE877A77EEE67A67EE807A37EE270A07
:1026540080ED030A704700002DE9F0418AB00024A0
:102664000194344B1A6B42F080021A631A6B02F025
:1026740080020192019A02941A6B42F001021A63D9
:102684001A6B02F001020292029A03941A6B42F04E
:1026940002021A631A6B02F002020392039A049470
:1026A4001A6B42F004021A631B6B03F004030493D5
:1026B400049B214E22464FF401713046FEF722FC62
:1026C400DFF8808022464FF470714046FEF71AFC12
:1026D4001A4F22464FF4E0613846FEF713FC0223FA
:1026E4000593174B0693079405A93046FEF72AFB7A
:1026F4004FF401730593012506950794089405A9E1
:102704003046FEF71FFB4FF470730593069507944C
:10271400089405A94046FEF715FB4FF4E0630593C2
:1027240006950794089405A93846FEF70BFB0AB0F2
:10273400BDE8F0810038024000040240000002407D
:1027440000001110000802403F4B1A683F4B9A42A8
:1027540064D03D4A1368093307EE903AF8EE677A7D
:102764009FED3B7A67EE877A9FED3A7A67EE877A38
:10277400DFED396A86EEA77A82ED017A324B9A68E8
:10278400324B9A424ED0304A9368093307EE903A5E
:10279400F8EE677A9FED2E7A67EE877A9FED2D7AB1
:1027A40067EE877ADFED2C6A86EEA77A82ED037AEC
:1027B400254B93ED017ADFED297AB4EEE77AF1EE59
:1027C40010FA33DDC3ED017A1F4BD3ED016ADFED5F
:1027D400245A66EEA56A9FED216AC6EE867AFCEE5F
:1027E400E77A17EE902A92B21A8293ED037A27EED3
:1027F400257AC7EE067AFCEEE77A17EE902A92B2B3
:102804005A825A8AC2F3072202705A8A42701A8A7A
:10281400C2F307220A701B8A4B7070470A4B0022CE
:102824005A60ABE7084B0022DA60C1E7064B93ED30
:10283400037ADFED0A7AB4EEE77AF1EE10FAC3DD3B
:10284400C3ED037AC0E700BFFC000020404B4C00FE
:1028540095BF563400007042DED9B73F00002042D5
:1028640000FF7F4708B5174B5B7813F0010F0DD1BC
:1028740013F0020F1BD113F0040F11D000F016FA5D
:10288400104B5A786FF382025A7009E0FFF71CFD6F
:102894000D48FDF727FF0B4B5A786FF300025A706F
:1028A400084B587810F0070000D0012008BDFFF74E
:1028B40031FD0648FDF716FF024B5A786FF34102CB
:1028C4005A70EDE71C0100204C0100202401002077
:1028D40010B58CB000240A940B94089409940694BF
:1028E400079404940594274B1B88ADF80C308DF89D
:1028F4000E400AA800F0DEFA08A800F019FB08A9A7
:102904000AA8FFF721FF2021422000F063FC8DF884
:102914000C408DF80D408DF80E401B4B5B69632B0A
:1029240022D003AB009304AB06AA08A90AA8FFF7B8
:10293400A1FD154A536901335361144A13680133E5
:102944001360134981FB0321DA17C2EBA1124FF480
:102954007A7101FB123292B10E4B587810F00700D5
:1029640000D001200CB010BD074B4FF0FF325A616C
:1029740006A800F0F9FA04A800F051FBD1E7FFF72C
:10298400DBFDE9E704370008FC00002074010020A7
:10299400D34D62101C01002038B5204D2846FDF7A8
:1029A400A1FE1F4C2046FDF79DFE02212846FEF79E
:1029B40003F804212846FDF7FFFF10212846FDF700
:1029C400FBFF20212846FDF7F7FF02212046FDF7F3
:1029D400F3FF04212046FDF7EFFF10212046FDF709
:1029E400EBFF20212046FDF7E7FF0E48FFF77EF9B5
:1029F400012210210C48FEF785FA0C4C0C212046CC
:102A0400FFF708FC0A4D08212846FFF703FC284677
:102A1400FFF76CF92046FFF769F938BD4C01002037
:102A2400240100202802002000000240640200204B
:102A3400A002002010B5044C2278044B03EB82035F
:102A44005B689847207010BD1C0100200437000803
:102A540038B52DED028B1B4B984208D01A4B984287
:102A640027D01A4B984228D0BDEC028B38BD184CA5
:102A74000123237694ED020AD4ED070AF8EE600AE6
:102A84009FED148A144D60EE880AB8EE400A284679
:102A9400FFF7C6FD94ED000AD4ED070AF8EE600ACC
:102AA40060EE880AB8EE400A05F11000FFF7B8FDA1
:102AB400DAE7074B094A1A60D6E7054B074A9A60DA
:102AC400D2E700BF28020020A002002064020020F8
:102AD400FC00002095BF56349C000020404B4C0065
:102AE4000A4B984203D00A4B984207D070471B68A0
:102AF400196C084A916000225A62F4E71B68D96B8A
:102B0400044A116000225A62F0E700BF6402002008
:102B1400A0020020FC000020FEE7000000B595B0F4
:102B2400002100912E4B1A6C42F080521A641B6CE7
:102B340003F080530093009B01912A4A136823F405
:102B4400404343F480431360136803F44043019308
:102B5400019B092307934FF48033089301230C93BB
:102B640002230D934FF480020E9219220F924FF418
:102B7400C8721092042211921293139307A8FEF7BD
:102B84000BFB20BB0F230293022303930023049324
:102B94004FF4A05305934FF480530693032102A8E6
:102BA400FEF7BAF9B8B9FEF765FA0F4BA3FB00308C
:102BB4008009FEF79BF80420FEF7AEF800221146C8
:102BC4004FF0FF30FEF752F815B05DF804FBE82132
:102BD4000648FFF7A1FFF6210448FFF79DFF00BF59
:102BE4000038024000700040D34D621038370008AE
:102BF40008B50024284B1C70FDF7A2FCFFF78EFFDC
:102C0400FFF72AFDFFF760FBFFF784FB00F04EF8A7
:102C140000F072F800F0C2FB00F036FC00F0FCFBA0
:102C240000F070FC00F068F8FFF7B6FE01224FF4E4
:102C340080611A48FEF766F9012204211848FEF75C
:102C440061F91848FDF74EFD00F066FA4FF4807103
:102C5400012000F06FFA2146092000F06BFA1521DB
:102C6400192000F067FA40F28471212000F088FAFC
:102C74002146042000F05EFA48F20101092000F028
:102C840059FA04E0FFF7D6FE074B00221A76064BEA
:102C94001B7E002BFBD0F5E71C0100200000024046
:102CA400000402404C010020FC00002008B50F483D
:102CB4000F4B03604FF48273436000238360C3604F
:102CC400036143614FF4007282613822C26103627E
:102CD400436283620A23C362FEF7A1FC00B908BD04
:102CE4005E210448FFF718FFF9E700BFD001002078
:102CF400003001404837000808B51048104B036005
:102D04004FF48273436000238360C3600222026134
:102D1400012242614FF4007282612822C26103627F
:102D2400436283620A23C362FEF779FC00B908BDDB
:102D340074210448FFF7F0FEF9E700BF7801002092
:102D4400003C00404837000870B588B00368294A41
:102D5400934204D0284A934226D008B070BD102371
:102D6400039301230493059303250695234C03A998
:102D74002046FDF7E7FF00210191214B5A6C42F4F4
:102D840080525A645B6C03F480530193019BE023EB
:102D9400039302230493059106950523079303A93E
:102DA4002046FDF7CFFFD8E700240294144B1A6C99
:102DB40042F400421A641B6C03F400430293029B26
:102DC40001230393022604960594032506950723FD
:102DD400079303A90B48FDF7B5FF4FF44063039332
:102DE4000496059406950623079303A90648FDF760
:102DF400A9FFB2E700300140003C0040000002405F
:102E040000380240000402400008024010B582B0BD
:102E1400030A8DF804308DF80500244C002210219B
:102E24002046FEF76FF80A23022201A92048FEF784
:102E340036FC012210212046FEF764F80023B3F586
:102E4400FA7F02D201339BB2F9E7184C0022102119
:102E54002046FEF757F80A23022201A91448FEF778
:102E64001EFC012210212046FEF74CF80023B3F586
:102E7400FA7F02D201339BB2F9E70C4C00221021F5
:102E84002046FEF73FF80A23022201A90848FEF76C
:102E9400F5FD012210212046FEF734F89DF80400C8
:102EA4009DF8053043EA002002B010BD0000024046
:102EB400D001002030B583B005464FF4CA50FFF767
:102EC400A5FF04464FF4D650FFF7A0FFC4F30B034D
:102ED40007EE903AF8EEE77AB3EE007A67EE877A77
:102EE400FCEEE77A17EE903A9BB2ADF80630C0F3E9
:102EF4000B0307EE903AF8EEE77A67EE877AFCEE7A
:102F0400E77A17EE903A9BB2ADF80430BDF806307C
:102F1400C3F30723AB70BDF80630EB70BDF8043083
:102F2400C3F307232B71BDF804306B7103B030BDBC
:102F340010B504464FF4E250FFF768FFC0F30B03EB
:102F440007EE903AF8EEE77AB3EE007A67EE877A06
:102F5400FCEEE77A17EE903AC3F30722A270E3700F
:102F640000232371637110BD38B52DED028B054626
:102F74004FF4DE50FFF74AFF04464FF4DA50FFF7F0
:102F840045FFC4F30B0307EE903AF8EEE77AB3EE8D
:102F9400008A67EE887AFCEEE77A17EE903AC0F37F
:102FA4000B0207EE902AF8EEE77A67EE887AFCEED9
:102FB400E77A17EE902AC3F3072129706B70C2F3E6
:102FC4000723AB70EA704FF4D250FFF71FFF04469B
:102FD4004FF4CE50FFF71AFFC4F30B0307EE903AF9
:102FE400F8EEE77A67EE887AFCEEE77A17EE903A25
:102FF400C0F30B0207EE902AF8EEE77A67EE887AC0
:10300400FCEEE77A17EE902AC3F3072129716B715E
:10301400C2F30723AB71EA71BDEC028B38BD38B53E
:103024002DED028B05464FF4F250FFF7EFFE0446F8
:103034004FF4EE50FFF7EAFEC4F30B0307EE903AA9
:10304400F8EEE77AB3EE008A67EE887AFCEEE77A68
:1030540017EE903AC0F30B0207EE902AF8EEE77AE7
:1030640067EE887AFCEEE77A17EE902AC3F307211D
:1030740029706B70C2F30723AB70EA704FF4EA5007
:10308400FFF7C4FE04464FF4E650FFF7BFFEC4F357
:103094000B0307EE903AF8EEE77A67EE887AFCEED7
:1030A400E77A17EE903AC0F30B0207EE902AF8EE97
:1030B400E77A67EE887AFCEEE77A17EE902AC3F394
:1030C400072129716B71C2F30723AB71EA71BDEC5F
:1030D400028B38BD10B582B045238DF80430FF2330
:1030E4008DF805300A4C002204212046FDF70AFF22
:1030F4006423022201A90748FEF7C0FC012204212F
:103104002046FDF7FFFE9DF8050002B010BD00BF8C
:10311400000402407801002008B5FFF7DBFF142803
:1031240000D008BD012240210148FDF7EBFEF8E77D
:103134000008024010B582B08DF800000B0A8DF82B
:1031440001308DF80210FF238DF803308DF8043020
:10315400094C002204212046FDF7D4FE64230522F5
:1031640069460648FEF79BFA012204212046FDF732
:10317400C9FE02B010BD00BF000402407801002067
:1031840010B582B08DF800000B0C8DF801300B0ADD
:103194008DF802308DF80310FF238DF804308DF87C
:1031A40005308DF80630094C002204212046FDF735
:1031B400A9FE6423072269460548FEF770FA012236
:1031C40004212046FDF79EFE02B010BD000402401B
:1031D4007801002010B582B08DF80400FF238DF82B
:1031E40005308DF806308DF807300F4C002204218D
:1031F4002046FDF787FE642304220DEB02010B48F1
:10320400FEF73CFC012204212046FDF77BFE9DF8DD
:1032140005009DF806301B0243EA00439DF80700B1
:10322400184302B010BD00BF000402407801002022
:1032340010B582B000240094214B5A6C42F48042B1
:103244005A645A6C02F480420092009A01941A6CF7
:1032540042F080521A641B6C03F080530193019B6B
:103264000320FDF7F1FC224621466FF00B00FDF729
:10327400FDFC224621466FF00A00FDF7F7FC2246CA
:1032840021466FF00900FDF7F1FC224621466FF05C
:103294000400FDF7EBFC224621466FF00300FDF726
:1032A400E5FC224621466FF00100FDF7DFFC2246D3
:1032B40021464FF0FF30FDF7D9FC02B010BD00BF2E
:1032C400003802407047FEE7FEE7FEE7FEE770477E
:1032D4007047704708B5FDF74DF9FDF72EFD08BDA1
:1032E40008B50248FDF78AFB08BD00BF4C01002069
:1032F40008B50248FDF782FB08BD00BF4C01002061
:1033040008B50248FEF786FD08BD00BFA0020020F4
:1033140008B50248FEF77EFD08BD00BF2802002064
:1033240008B50248FEF776FD08BD00BF6402002020
:1033340008B50248FDF762FB08BD00BF2401002068
:1033440008B50248FDF75AFB08BD00BF2401002060
:103354000F49D1F8883043F47003C1F888300D4B1D
:103364001A6842F001021A60002098601A6822F07C
:10337400847222F480321A60074A5A601A6822F46E
:1033840080221A60D8604FF000638B60704700BFE2
:1033940000ED00E0003802401030002400B587B092
:1033A4001A484FF08043036009234360002383607D
:1033B400174AC2600361FEF765FEB8B9002304939F
:1033C400059304A91148FEF754FFA0B90023009304
:1033D4000122019202930F230393082269460B48AA
:1033E400FEF7A8FE60B907B05DF804FB4D2109485B
:1033F400FFF792FBE2E754210648FFF78DFBE5E770
:103404005D210448FFF788FBEDE700BFA002002020
:10341400404B4C005837000800B587B01748184B8C
:103424000360F9234360002383606322C260036165
:10343400FEF70EFE90B94FF48053029302A90F4891
:10344400FEF760FC78B900230093019369460B48AA
:10345400FEF70FFF60B907B05DF804FB6E21094861
:10346400FFF75AFBE7E774210648FFF755FBEAE745
:103474007B210448FFF750FBEDE700BF2802002042
:10348400000800405837000800B587B019481A4BA7
:1034940003600923436000238360184AC260036108
:1034A400FEF7F0FDB0B900230493059304A9114875
:1034B400FEF7DFFE98B900230093012201920293E4
:1034C40003930C2269460B48FEF734FE60B907B03B
:1034D4005DF804FB8C210A48FFF71EFBE3E7932108
:1034E4000748FFF719FBE6E79C210548FFF714FBA3
:1034F400EDE700BF64020020000C0040404B4C008C
:103504005837000808B50A480A4B036041F287336C
:103514004360002383604FF6FF72C2600361FEF7CD
:1035240097FD00B908BDAB210348FFF7F5FAF9E7A9
:10353400DC020020002000405837000830B589B074
:103544000368B3F1804F04D0234A934223D009B0D7
:1035540030BD0024019403F50E331A6C42F00102CD
:103564001A641B6C03F001030193019B042303936E
:1035740002230493059406940125079503A917488B
:10358400FDF7E0FB224629461C20FDF76FFB1C20BB
:10359400FDF7A0FBDBE700240294114B1A6C42F008
:1035A40008021A641B6C03F008030293029B0823AD
:1035B40003930223049305940694079303A90748ED
:1035C400FDF7C0FB224601213220FDF74FFB3220DC
:1035D400FDF780FBBBE700BF000C00400000024089
:1035E4000038024000B583B00368154A934205D001
:1035F400144A934216D003B05DF804FB00220092F3
:10360400114B196C41F0040119641B6C03F00403A1
:103614000093009B02211E20FDF728FB1E20FDF7CE
:1036240059FBE8E700230193074B1A6C42F48072BC
:103634001A641B6C03F480730193019BDBE700BFE6
:10364400000800400020004000380240DFF834D079
:10365400002103E00C4B5B58435004310B480C4BE6
:1036640042189A42F6D30B4A02E0002342F8043B84
:10367400094B9A42F9D3FFF76BFE00F011F8FFF7FC
:10368400B7FA7047000002207837000800000020D5
:10369400C0000020C000002018030020FEE7000046
:1036A40070B50D4D0D4C641BA4100026A64209D123
:1036B4000B4D0C4C00F018F8641BA4100026A64215
:1036C40005D170BD55F8043B98470136EEE755F82F
:1036D400043B98470136F2E770370008703700085A
:1036E4007037000874370008F8B500BFF8BC08BC90
:1036F4009E467047F8B500BFF8BC08BC9E467047AC
:1037040000000000D5280008692800080000000017
:10371400000000000102030406070809000000007D
:10372400010203042E2E2F5372632F63616E2E63E6
:10373400000000002E2E2F5372632F6D61696E2ED0
:10374400630000002E2E2F5372632F7370692E6353
:10375400000000002E2E2F5372632F74696D2E63A8
:043764000000000061
:08376800CCCAFF7F0100000044
:04377000E901000863
:04377400C501000883
:10377800010000001000000000020000000000002E
:103788000000000000000000080000000000000029
:10379800020200000000000000000000000000001D
:1037A8000800000000000000040200000000000003
:1037B80000000000000000000800000000000000F9
:1037C80001020000000000000000000000000000EE
:1037D80008000000000000000302000000000000D4
:1037E80000000000000000000800000000000000C9
:1037F80000000000000000000000000000000000C1
:103808000800000000000000000000006F12833A6A
:1038180064149D446666663F000000006F12833A98
:1038280064149D446666663F000000000024F400AE
:040000050800365168
:00000001FF
